{
  "_format": "hh-sol-artifact-1",
  "contractName": "EESCore",
  "sourceName": "src/Core/EESCore.sol",
  "abi": [
    {
      "inputs": [],
      "stateMutability": "nonpayable",
      "type": "constructor"
    },
    {
      "inputs": [
        {
          "internalType": "address",
          "name": "target",
          "type": "address"
        }
      ],
      "name": "AddressEmptyCode",
      "type": "error"
    },
    {
      "inputs": [
        {
          "internalType": "address",
          "name": "implementation",
          "type": "address"
        }
      ],
      "name": "ERC1967InvalidImplementation",
      "type": "error"
    },
    {
      "inputs": [],
      "name": "ERC1967NonPayable",
      "type": "error"
    },
    {
      "inputs": [],
      "name": "FailedInnerCall",
      "type": "error"
    },
    {
      "inputs": [],
      "name": "InvalidEAS",
      "type": "error"
    },
    {
      "inputs": [],
      "name": "InvalidInitialization",
      "type": "error"
    },
    {
      "inputs": [],
      "name": "MathOverflowedMulDiv",
      "type": "error"
    },
    {
      "inputs": [],
      "name": "NotInitializing",
      "type": "error"
    },
    {
      "inputs": [
        {
          "internalType": "address",
          "name": "owner",
          "type": "address"
        }
      ],
      "name": "OwnableInvalidOwner",
      "type": "error"
    },
    {
      "inputs": [
        {
          "internalType": "address",
          "name": "account",
          "type": "address"
        }
      ],
      "name": "OwnableUnauthorizedAccount",
      "type": "error"
    },
    {
      "inputs": [],
      "name": "ReentrancyGuardReentrantCall",
      "type": "error"
    },
    {
      "inputs": [],
      "name": "UUPSUnauthorizedCallContext",
      "type": "error"
    },
    {
      "inputs": [
        {
          "internalType": "bytes32",
          "name": "slot",
          "type": "bytes32"
        }
      ],
      "name": "UUPSUnsupportedProxiableUUID",
      "type": "error"
    },
    {
      "anonymous": false,
      "inputs": [
        {
          "indexed": true,
          "internalType": "address",
          "name": "from",
          "type": "address"
        },
        {
          "indexed": true,
          "internalType": "address",
          "name": "to",
          "type": "address"
        },
        {
          "indexed": false,
          "internalType": "uint256",
          "name": "amount",
          "type": "uint256"
        }
      ],
      "name": "Donate",
      "type": "event"
    },
    {
      "anonymous": false,
      "inputs": [
        {
          "indexed": true,
          "internalType": "address",
          "name": "endorser",
          "type": "address"
        },
        {
          "indexed": true,
          "internalType": "address",
          "name": "endorsee",
          "type": "address"
        },
        {
          "indexed": false,
          "internalType": "string",
          "name": "endorsementType",
          "type": "string"
        },
        {
          "indexed": true,
          "internalType": "bytes32",
          "name": "uid",
          "type": "bytes32"
        },
        {
          "indexed": false,
          "internalType": "uint256",
          "name": "donationAmount",
          "type": "uint256"
        }
      ],
      "name": "Endorse",
      "type": "event"
    },
    {
      "anonymous": false,
      "inputs": [
        {
          "indexed": false,
          "internalType": "uint64",
          "name": "version",
          "type": "uint64"
        }
      ],
      "name": "Initialized",
      "type": "event"
    },
    {
      "anonymous": false,
      "inputs": [
        {
          "indexed": true,
          "internalType": "address",
          "name": "previousOwner",
          "type": "address"
        },
        {
          "indexed": true,
          "internalType": "address",
          "name": "newOwner",
          "type": "address"
        }
      ],
      "name": "OwnershipTransferred",
      "type": "event"
    },
    {
      "anonymous": false,
      "inputs": [
        {
          "indexed": true,
          "internalType": "address",
          "name": "implementation",
          "type": "address"
        }
      ],
      "name": "Upgraded",
      "type": "event"
    },
    {
      "anonymous": false,
      "inputs": [
        {
          "indexed": true,
          "internalType": "address",
          "name": "from",
          "type": "address"
        },
        {
          "indexed": false,
          "internalType": "uint256",
          "name": "amount",
          "type": "uint256"
        }
      ],
      "name": "Withdraw",
      "type": "event"
    },
    {
      "anonymous": false,
      "inputs": [
        {
          "indexed": false,
          "internalType": "string",
          "name": "feeType",
          "type": "string"
        },
        {
          "indexed": true,
          "internalType": "address",
          "name": "recipient",
          "type": "address"
        },
        {
          "indexed": false,
          "internalType": "uint256",
          "name": "amount",
          "type": "uint256"
        }
      ],
      "name": "WithdrawFees",
      "type": "event"
    },
    {
      "inputs": [],
      "name": "DONATIONS_STORAGE_SLOT",
      "outputs": [
        {
          "internalType": "bytes32",
          "name": "",
          "type": "bytes32"
        }
      ],
      "stateMutability": "view",
      "type": "function"
    },
    {
      "inputs": [],
      "name": "FEES_STORAGE_SLOT",
      "outputs": [
        {
          "internalType": "bytes32",
          "name": "",
          "type": "bytes32"
        }
      ],
      "stateMutability": "view",
      "type": "function"
    },
    {
      "inputs": [],
      "name": "UPGRADE_INTERFACE_VERSION",
      "outputs": [
        {
          "internalType": "string",
          "name": "",
          "type": "string"
        }
      ],
      "stateMutability": "view",
      "type": "function"
    },
    {
      "inputs": [],
      "name": "_schemaUid",
      "outputs": [
        {
          "internalType": "bytes32",
          "name": "",
          "type": "bytes32"
        }
      ],
      "stateMutability": "view",
      "type": "function"
    },
    {
      "inputs": [
        {
          "internalType": "address",
          "name": "endorsee",
          "type": "address"
        },
        {
          "internalType": "string",
          "name": "endorsementType",
          "type": "string"
        },
        {
          "internalType": "string",
          "name": "comment",
          "type": "string"
        },
        {
          "internalType": "string",
          "name": "endorseeSocial",
          "type": "string"
        }
      ],
      "name": "endorse",
      "outputs": [],
      "stateMutability": "payable",
      "type": "function"
    },
    {
      "inputs": [
        {
          "internalType": "address",
          "name": "account",
          "type": "address"
        }
      ],
      "name": "getBalance",
      "outputs": [
        {
          "internalType": "uint256",
          "name": "balance",
          "type": "uint256"
        }
      ],
      "stateMutability": "view",
      "type": "function"
    },
    {
      "inputs": [],
      "name": "getDonationFeePercentage",
      "outputs": [
        {
          "internalType": "uint256",
          "name": "percentage",
          "type": "uint256"
        }
      ],
      "stateMutability": "view",
      "type": "function"
    },
    {
      "inputs": [],
      "name": "getDonationsFeesBalance",
      "outputs": [
        {
          "internalType": "uint256",
          "name": "balance",
          "type": "uint256"
        }
      ],
      "stateMutability": "view",
      "type": "function"
    },
    {
      "inputs": [],
      "name": "getEndorsementPrice",
      "outputs": [
        {
          "internalType": "uint256",
          "name": "price",
          "type": "uint256"
        }
      ],
      "stateMutability": "view",
      "type": "function"
    },
    {
      "inputs": [],
      "name": "getEndorsementsFeesBalance",
      "outputs": [
        {
          "internalType": "uint256",
          "name": "balance",
          "type": "uint256"
        }
      ],
      "stateMutability": "view",
      "type": "function"
    },
    {
      "inputs": [],
      "name": "getTotalFeesBalance",
      "outputs": [
        {
          "internalType": "uint256",
          "name": "balance",
          "type": "uint256"
        }
      ],
      "stateMutability": "view",
      "type": "function"
    },
    {
      "inputs": [
        {
          "internalType": "address",
          "name": "easAddress",
          "type": "address"
        },
        {
          "internalType": "bytes32",
          "name": "schemaUid",
          "type": "bytes32"
        }
      ],
      "name": "initialize",
      "outputs": [],
      "stateMutability": "nonpayable",
      "type": "function"
    },
    {
      "inputs": [],
      "name": "owner",
      "outputs": [
        {
          "internalType": "address",
          "name": "",
          "type": "address"
        }
      ],
      "stateMutability": "view",
      "type": "function"
    },
    {
      "inputs": [],
      "name": "proxiableUUID",
      "outputs": [
        {
          "internalType": "bytes32",
          "name": "",
          "type": "bytes32"
        }
      ],
      "stateMutability": "view",
      "type": "function"
    },
    {
      "inputs": [],
      "name": "renounceOwnership",
      "outputs": [],
      "stateMutability": "nonpayable",
      "type": "function"
    },
    {
      "inputs": [
        {
          "internalType": "uint256",
          "name": "newFee",
          "type": "uint256"
        }
      ],
      "name": "setDonationFeePercentage",
      "outputs": [],
      "stateMutability": "nonpayable",
      "type": "function"
    },
    {
      "inputs": [
        {
          "internalType": "uint256",
          "name": "newPrice",
          "type": "uint256"
        }
      ],
      "name": "setEndorsementPrice",
      "outputs": [],
      "stateMutability": "nonpayable",
      "type": "function"
    },
    {
      "inputs": [
        {
          "internalType": "address",
          "name": "newEasAddress",
          "type": "address"
        }
      ],
      "name": "setNewEasAddress",
      "outputs": [],
      "stateMutability": "nonpayable",
      "type": "function"
    },
    {
      "inputs": [
        {
          "internalType": "bytes32",
          "name": "newSchemaUid",
          "type": "bytes32"
        }
      ],
      "name": "setNewSchemaUid",
      "outputs": [],
      "stateMutability": "nonpayable",
      "type": "function"
    },
    {
      "inputs": [
        {
          "internalType": "address",
          "name": "newOwner",
          "type": "address"
        }
      ],
      "name": "transferOwnership",
      "outputs": [],
      "stateMutability": "nonpayable",
      "type": "function"
    },
    {
      "inputs": [
        {
          "internalType": "address",
          "name": "newImplementation",
          "type": "address"
        },
        {
          "internalType": "bytes",
          "name": "data",
          "type": "bytes"
        }
      ],
      "name": "upgradeToAndCall",
      "outputs": [],
      "stateMutability": "payable",
      "type": "function"
    },
    {
      "inputs": [],
      "name": "withdraw",
      "outputs": [],
      "stateMutability": "nonpayable",
      "type": "function"
    },
    {
      "inputs": [],
      "name": "withdrawAllFees",
      "outputs": [],
      "stateMutability": "nonpayable",
      "type": "function"
    },
    {
      "inputs": [
        {
          "internalType": "uint256",
          "name": "amount",
          "type": "uint256"
        }
      ],
      "name": "withdrawDonationFees",
      "outputs": [],
      "stateMutability": "nonpayable",
      "type": "function"
    },
    {
      "inputs": [
        {
          "internalType": "uint256",
          "name": "amount",
          "type": "uint256"
        }
      ],
      "name": "withdrawEndorsementFees",
      "outputs": [],
      "stateMutability": "nonpayable",
      "type": "function"
    }
  ],
  "bytecode": "0x60a0604052306080523480156200001557600080fd5b506200002062000030565b6200002a62000030565b620000e4565b7ff0c57e16840df040f15088dc2f81fe391c3923bec73e23a9662efc9c229c6a00805468010000000000000000900460ff1615620000815760405163f92ee8a960e01b815260040160405180910390fd5b80546001600160401b0390811614620000e15780546001600160401b0319166001600160401b0390811782556040519081527fc7f505b2f371ae2175ee4913f4499e1f2633a7b5936321eed1cdaeb6115181d29060200160405180910390a15b50565b608051612cb86200010e60003960008181610e6401528181610e8d01526111420152612cb86000f3fe6080604052600436106101965760003560e01c80639720ae4e116100e1578063c99add9e1161008a578063f17d367c11610064578063f17d367c14610471578063f2fde38b14610486578063f8b2cb4f146104a6578063fbd8f092146104c657600080fd5b8063c99add9e14610413578063ce0638a914610428578063e26544751461045c57600080fd5b8063af236af4116100bb578063af236af4146103aa578063be13f47c146103bf578063c71575fb146103df57600080fd5b80639720ae4e14610314578063a1011bf614610334578063ad3cb1cc1461035457600080fd5b8063715018a6116101435780637a40aa1d1161011d5780637a40aa1d1461028b5780638da5cb5b146102a057806390a7840d146102f457600080fd5b8063715018a614610240578063747efa8c1461025557806378ca55931461027557600080fd5b806352c8ceb61161017457806352c8ceb6146101e557806352d1902d146102055780635f88c14c1461022d57600080fd5b80630bdaafb61461019b5780633ccfd60b146101bd5780634f1ef286146101d2575b600080fd5b3480156101a757600080fd5b506101bb6101b6366004612758565b6104db565b005b3480156101c957600080fd5b506101bb610520565b6101bb6101e036600461285d565b610564565b3480156101f157600080fd5b506101bb6102003660046128bf565b610583565b34801561021157600080fd5b5061021a610594565b6040519081526020015b60405180910390f35b6101bb61023b3660046128fa565b6105c3565b34801561024c57600080fd5b506101bb610841565b34801561026157600080fd5b506101bb610270366004612758565b610853565b34801561028157600080fd5b5061021a60015481565b34801561029757600080fd5b5061021a61086c565b3480156102ac57600080fd5b507f9016d09d72d40fdae2fd8ceac6b6234c7706214fd39c1cd1e609a0528c1993005460405173ffffffffffffffffffffffffffffffffffffffff9091168152602001610224565b34801561030057600080fd5b506101bb61030f366004612758565b61087b565b34801561032057600080fd5b506101bb61032f366004612758565b610922565b34801561034057600080fd5b506101bb61034f366004612758565b6109c5565b34801561036057600080fd5b5061039d6040518060400160405280600581526020017f352e302e3000000000000000000000000000000000000000000000000000000081525081565b6040516102249190612a01565b3480156103b657600080fd5b506101bb6109d6565b3480156103cb57600080fd5b506101bb6103da366004612a14565b6109ee565b3480156103eb57600080fd5b5061021a7f0be6fd006179cbcfdd5772583e02de8610ab335bea5c51ba3d3e5ac7d0f10dfa81565b34801561041f57600080fd5b5061021a610b94565b34801561043457600080fd5b5061021a7f2683ece210a12286d4d17e9767071f15d0de56aa0443eee9f2df49512839dac381565b34801561046857600080fd5b5061021a610b9e565b34801561047d57600080fd5b5061021a610ba8565b34801561049257600080fd5b506101bb6104a13660046128bf565b610bb2565b3480156104b257600080fd5b5061021a6104c13660046128bf565b610c13565b3480156104d257600080fd5b5061021a610c24565b6104e3610c2e565b6104eb610cbc565b6104f481610d3d565b61051d60017f9b779b17422d0df92223018b32b4d1fa46e071723d6817e2486d003becc55f0055565b50565b610528610cbc565b61053961053433610d68565b610db7565b61056260017f9b779b17422d0df92223018b32b4d1fa46e071723d6817e2486d003becc55f0055565b565b61056c610e4c565b61057582610f50565b61057f8282610f58565b5050565b61058b610c2e565b61051d81611096565b600061059e61112a565b507f360894a13ba1a3210667c828492db98dca3e2076cc3735a920a3ca505d382bbc90565b73ffffffffffffffffffffffffffffffffffffffff84163303610647576040517f08c379a000000000000000000000000000000000000000000000000000000000815260206004820152601a60248201527f43616e6e6f7420656e646f72736520746f20796f757273656c6600000000000060448201526064015b60405180910390fd5b61064f611199565b3410156106b8576040517f08c379a000000000000000000000000000000000000000000000000000000000815260206004820152601c60248201527f496e73756666696369656e7420656e646f7273656d656e742066656500000000604482015260640161063e565b73ffffffffffffffffffffffffffffffffffffffff841661075b576040517f08c379a000000000000000000000000000000000000000000000000000000000815260206004820152602360248201527f456e646f727365652063616e6e6f7420626520746865207a65726f206164647260448201527f6573730000000000000000000000000000000000000000000000000000000000606482015260840161063e565b3073ffffffffffffffffffffffffffffffffffffffff851603610800576040517f08c379a000000000000000000000000000000000000000000000000000000000815260206004820152602760248201527f456e646f727365652063616e6e6f742062652074686520636f6e74726163742060448201527f6164647265737300000000000000000000000000000000000000000000000000606482015260840161063e565b600061081b3461080e611199565b6108166111e7565b611233565b9050801561082d5761082d858261127c565b61083a8585858585611327565b5050505050565b610849610c2e565b61056260006114a2565b61085b610c2e565b610863610cbc565b6104f481611538565b6000610876611563565b905090565b610883610c2e565b61088b611199565b8110610919576040517f08c379a000000000000000000000000000000000000000000000000000000000815260206004820152602e60248201527f456e646f7273656d656e742070726963652063616e6e6f74206578636565642060448201527f70726576696f7573207072696365000000000000000000000000000000000000606482015260840161063e565b61051d816115af565b61092a610c2e565b61012c8111156109bc576040517f08c379a000000000000000000000000000000000000000000000000000000000815260206004820152602860248201527f446f6e6174696f6e206665652070657263656e746167652063616e6e6f74206560448201527f7863656564203325000000000000000000000000000000000000000000000000606482015260840161063e565b61051d81611670565b6109cd610c2e565b61051d81600155565b6109de610c2e565b6109e6610cbc565b610539611726565b7ff0c57e16840df040f15088dc2f81fe391c3923bec73e23a9662efc9c229c6a00805468010000000000000000810460ff16159067ffffffffffffffff16600081158015610a395750825b905060008267ffffffffffffffff166001148015610a565750303b155b905081158015610a64575080155b15610a9b576040517ff92ee8a900000000000000000000000000000000000000000000000000000000815260040160405180910390fd5b84547fffffffffffffffffffffffffffffffffffffffffffffffff00000000000000001660011785558315610afc5784547fffffffffffffffffffffffffffffffffffffffffffffff00ffffffffffffffff16680100000000000000001785555b610b0533611750565b610b0d611761565b610b178787611769565b610b2966017dfcdece400060646118d6565b8315610b8b5784547fffffffffffffffffffffffffffffffffffffffffffffff00ffffffffffffffff168555604051600181527fc7f505b2f371ae2175ee4913f4499e1f2633a7b5936321eed1cdaeb6115181d2906020015b60405180910390a15b50505050505050565b6000610876611a89565b6000610876611199565b6000610876611ab5565b610bba610c2e565b73ffffffffffffffffffffffffffffffffffffffff8116610c0a576040517f1e4fbdf70000000000000000000000000000000000000000000000000000000081526000600482015260240161063e565b61051d816114a2565b6000610c1e82610d68565b92915050565b60006108766111e7565b33610c6d7f9016d09d72d40fdae2fd8ceac6b6234c7706214fd39c1cd1e609a0528c1993005473ffffffffffffffffffffffffffffffffffffffff1690565b73ffffffffffffffffffffffffffffffffffffffff1614610562576040517f118cdaa700000000000000000000000000000000000000000000000000000000815233600482015260240161063e565b7f9b779b17422d0df92223018b32b4d1fa46e071723d6817e2486d003becc55f0080547ffffffffffffffffffffffffffffffffffffffffffffffffffffffffffffffffe01610d37576040517f3ee5aeb500000000000000000000000000000000000000000000000000000000815260040160405180910390fd5b60029055565b7f2683ece210a12286d4d17e9767071f15d0de56aa0443eee9f2df49512839dac361057f8183611ae1565b73ffffffffffffffffffffffffffffffffffffffff811660009081527f0be6fd006179cbcfdd5772583e02de8610ab335bea5c51ba3d3e5ac7d0f10dfa602081905260408220545b9392505050565b60008111610e21576040517f08c379a000000000000000000000000000000000000000000000000000000000815260206004820152601460248201527f496e73756666696369656e742062616c616e6365000000000000000000000000604482015260640161063e565b7f0be6fd006179cbcfdd5772583e02de8610ab335bea5c51ba3d3e5ac7d0f10dfa61057f8183611c07565b3073ffffffffffffffffffffffffffffffffffffffff7f0000000000000000000000000000000000000000000000000000000000000000161480610f1957507f000000000000000000000000000000000000000000000000000000000000000073ffffffffffffffffffffffffffffffffffffffff16610f007f360894a13ba1a3210667c828492db98dca3e2076cc3735a920a3ca505d382bbc5473ffffffffffffffffffffffffffffffffffffffff1690565b73ffffffffffffffffffffffffffffffffffffffff1614155b15610562576040517fe07c8dba00000000000000000000000000000000000000000000000000000000815260040160405180910390fd5b61051d610c2e565b8173ffffffffffffffffffffffffffffffffffffffff166352d1902d6040518163ffffffff1660e01b8152600401602060405180830381865afa925050508015610fdd575060408051601f3d9081017fffffffffffffffffffffffffffffffffffffffffffffffffffffffffffffffe0168201909252610fda91810190612a3e565b60015b61102b576040517f4c9c8ce300000000000000000000000000000000000000000000000000000000815273ffffffffffffffffffffffffffffffffffffffff8316600482015260240161063e565b7f360894a13ba1a3210667c828492db98dca3e2076cc3735a920a3ca505d382bbc8114611087576040517faa1d49a40000000000000000000000000000000000000000000000000000000081526004810182905260240161063e565b6110918383611d04565b505050565b73ffffffffffffffffffffffffffffffffffffffff81166110e3576040517f83780ffe00000000000000000000000000000000000000000000000000000000815260040160405180910390fd5b600080547fffffffffffffffffffffffff00000000000000000000000000000000000000001673ffffffffffffffffffffffffffffffffffffffff92909216919091179055565b3073ffffffffffffffffffffffffffffffffffffffff7f00000000000000000000000000000000000000000000000000000000000000001614610562576040517fe07c8dba00000000000000000000000000000000000000000000000000000000815260040160405180910390fd5b7f2683ece210a12286d4d17e9767071f15d0de56aa0443eee9f2df49512839dac5546000907f2683ece210a12286d4d17e9767071f15d0de56aa0443eee9f2df49512839dac3905b91505090565b7f2683ece210a12286d4d17e9767071f15d0de56aa0443eee9f2df49512839dac6546000907f2683ece210a12286d4d17e9767071f15d0de56aa0443eee9f2df49512839dac3906111e1565b6000806112408486612a86565b9050600061125382856127106001611d67565b905061125f8183612a86565b925061126a85611db8565b61127381611de3565b50509392505050565b3373ffffffffffffffffffffffffffffffffffffffff8316036112fb576040517f08c379a000000000000000000000000000000000000000000000000000000000815260206004820152601960248201527f43616e6e6f7420646f6e61746520746f20796f757273656c6600000000000000604482015260640161063e565b7f0be6fd006179cbcfdd5772583e02de8610ab335bea5c51ba3d3e5ac7d0f10dfa611091818484611e0e565b3373ffffffffffffffffffffffffffffffffffffffff8616036113a6576040517f08c379a000000000000000000000000000000000000000000000000000000000815260206004820152601960248201527f43616e6e6f742061747465737420746f20796f757273656c6600000000000000604482015260640161063e565b60006040518060c001604052808773ffffffffffffffffffffffffffffffffffffffff168152602001600067ffffffffffffffff1681526020016001151581526020016000801b8152602001868633876040516020016114099493929190612a99565b604051602081830303815290604052815260200160008152509050600061142f82612000565b9050808773ffffffffffffffffffffffffffffffffffffffff163373ffffffffffffffffffffffffffffffffffffffff167f3f7e3057afbd38a876ba2136eab5e0b3ce19e82cfde982589903e813a0e547a78987604051611491929190612af9565b60405180910390a450505050505050565b7f9016d09d72d40fdae2fd8ceac6b6234c7706214fd39c1cd1e609a0528c19930080547fffffffffffffffffffffffff0000000000000000000000000000000000000000811673ffffffffffffffffffffffffffffffffffffffff848116918217845560405192169182907f8be0079c531659141344cd1fd0a4f28419497f9722a3daafe3b4186f6b6457e090600090a3505050565b7f2683ece210a12286d4d17e9767071f15d0de56aa0443eee9f2df49512839dac361057f81836120ac565b7f2683ece210a12286d4d17e9767071f15d0de56aa0443eee9f2df49512839dac4546000907f2683ece210a12286d4d17e9767071f15d0de56aa0443eee9f2df49512839dac3906111e1565b6115b7611199565b8110611645576040517f08c379a000000000000000000000000000000000000000000000000000000000815260206004820152603b60248201527f4e657720656e646f7273656d656e742070726963652063616e6e6f742062652060448201527f686967686572207468616e207468652063757272656e74206f6e650000000000606482015260840161063e565b7f2683ece210a12286d4d17e9767071f15d0de56aa0443eee9f2df49512839dac361057f81836121c7565b61012c811115611702576040517f08c379a000000000000000000000000000000000000000000000000000000000815260206004820152602860248201527f446f6e6174696f6e206665652070657263656e746167652063616e6e6f74206560448201527f7863656564203325000000000000000000000000000000000000000000000000606482015260840161063e565b7f2683ece210a12286d4d17e9767071f15d0de56aa0443eee9f2df49512839dac655565b7f2683ece210a12286d4d17e9767071f15d0de56aa0443eee9f2df49512839dac361051d81612262565b61175861232b565b61051d81612392565b61056261232b565b7ff0c57e16840df040f15088dc2f81fe391c3923bec73e23a9662efc9c229c6a00805468010000000000000000810460ff16159067ffffffffffffffff166000811580156117b45750825b905060008267ffffffffffffffff1660011480156117d15750303b155b9050811580156117df575080155b15611816576040517ff92ee8a900000000000000000000000000000000000000000000000000000000815260040160405180910390fd5b84547fffffffffffffffffffffffffffffffffffffffffffffffff000000000000000016600117855583156118775784547fffffffffffffffffffffffffffffffffffffffffffffff00ffffffffffffffff16680100000000000000001785555b73ffffffffffffffffffffffffffffffffffffffff87166118c4576040517f83780ffe00000000000000000000000000000000000000000000000000000000815260040160405180910390fd5b6118cd87611096565b610b2986600155565b7ff0c57e16840df040f15088dc2f81fe391c3923bec73e23a9662efc9c229c6a00805468010000000000000000810460ff16159067ffffffffffffffff166000811580156119215750825b905060008267ffffffffffffffff16600114801561193e5750303b155b90508115801561194c575080155b15611983576040517ff92ee8a900000000000000000000000000000000000000000000000000000000815260040160405180910390fd5b84547fffffffffffffffffffffffffffffffffffffffffffffffff000000000000000016600117855583156119e45784547fffffffffffffffffffffffffffffffffffffffffffffff00ffffffffffffffff16680100000000000000001785555b7f2683ece210a12286d4d17e9767071f15d0de56aa0443eee9f2df49512839dac58790557f2683ece210a12286d4d17e9767071f15d0de56aa0443eee9f2df49512839dac68690558315610b8b5784547fffffffffffffffffffffffffffffffffffffffffffffff00ffffffffffffffff168555604051600181527fc7f505b2f371ae2175ee4913f4499e1f2633a7b5936321eed1cdaeb6115181d290602001610b82565b60007f2683ece210a12286d4d17e9767071f15d0de56aa0443eee9f2df49512839dac36111e18161239a565b7f2683ece210a12286d4d17e9767071f15d0de56aa0443eee9f2df49512839dac38054600091906111e1565b8160010154811115611b4f576040517f08c379a000000000000000000000000000000000000000000000000000000000815260206004820152601460248201527f496e73756666696369656e742062616c616e6365000000000000000000000000604482015260640161063e565b80826001016000828254611b639190612a86565b9091555050604051339082156108fc029083906000818181858888f19350505050158015611b95573d6000803e3d6000fd5b50604080518181526009918101919091527f444f4e4154494f4e53000000000000000000000000000000000000000000000060608201526020810182905233907fce53785061f494db695915f077e93da3ceae9aa9eb37f94218b00e8836751d66906080015b60405180910390a25050565b33600090815260208390526040902054811115611c80576040517f08c379a000000000000000000000000000000000000000000000000000000000815260206004820152601460248201527f496e73756666696369656e742062616c616e6365000000000000000000000000604482015260640161063e565b3360009081526020839052604081208054839290611c9f908490612a86565b9091555050604051339082156108fc029083906000818181858888f19350505050158015611cd1573d6000803e3d6000fd5b5060405181815233907f884edad9ce6fa2440d8a54cc123490eb96d2768479d49ff9c7366125a942436490602001611bfb565b611d0d826123ad565b60405173ffffffffffffffffffffffffffffffffffffffff8316907fbc7cd75a20ee27fd9adebab32041f755214dbc6bffa90cc0225b39da2e5c2d3b90600090a2805115611d5f57611091828261247c565b61057f6124f6565b600080611d7586868661252e565b9050611d8083612629565b8015611d9c575060008480611d9757611d97612b1b565b868809115b15611daf57611dac600182612b4a565b90505b95945050505050565b7f2683ece210a12286d4d17e9767071f15d0de56aa0443eee9f2df49512839dac361057f8183612656565b7f2683ece210a12286d4d17e9767071f15d0de56aa0443eee9f2df49512839dac361057f8183612673565b73ffffffffffffffffffffffffffffffffffffffff8216611e8b576040517f08c379a000000000000000000000000000000000000000000000000000000000815260206004820152600f60248201527f496e76616c696420616464726573730000000000000000000000000000000000604482015260640161063e565b60008111611ef5576040517f08c379a000000000000000000000000000000000000000000000000000000000815260206004820152600e60248201527f496e76616c696420616d6f756e74000000000000000000000000000000000000604482015260640161063e565b73ffffffffffffffffffffffffffffffffffffffff82163303611f74576040517f08c379a000000000000000000000000000000000000000000000000000000000815260206004820152601960248201527f43616e6e6f7420646f6e61746520746f20796f757273656c6600000000000000604482015260640161063e565b73ffffffffffffffffffffffffffffffffffffffff821660009081526020849052604081208054839290611fa9908490612b4a565b909155505060405181815273ffffffffffffffffffffffffffffffffffffffff83169033907f88dcaca629d63d86330e97adc358b13dd0ebd703239aea96b7ea2fb331b16f4e9060200160405180910390a3505050565b6000805460408051808201825260015481526020810185905290517ff17325e700000000000000000000000000000000000000000000000000000000815273ffffffffffffffffffffffffffffffffffffffff9092169163f17325e79161206991600401612b5d565b6020604051808303816000875af1158015612088573d6000803e3d6000fd5b505050506040513d601f19601f82011682018060405250810190610c1e9190612a3e565b8154811115612117576040517f08c379a000000000000000000000000000000000000000000000000000000000815260206004820152601460248201527f496e73756666696369656e742062616c616e6365000000000000000000000000604482015260640161063e565b8082600001600082825461212b9190612a86565b9091555050604051339082156108fc029083906000818181858888f1935050505015801561215d573d6000803e3d6000fd5b5060408051818152600c918101919091527f454e444f5253454d454e5453000000000000000000000000000000000000000060608201526020810182905233907fce53785061f494db695915f077e93da3ceae9aa9eb37f94218b00e8836751d6690608001611bfb565b8160020154811061225a576040517f08c379a000000000000000000000000000000000000000000000000000000000815260206004820152602e60248201527f456e646f7273656d656e742070726963652063616e6e6f74206578636565642060448201527f70726576696f7573207072696365000000000000000000000000000000000000606482015260840161063e565b600290910155565b600181018054825460009283905591835590336108fc6122828385612b4a565b6040518115909202916000818181858888f193505050501580156122aa573d6000803e3d6000fd5b50337fce53785061f494db695915f077e93da3ceae9aa9eb37f94218b00e8836751d666122d78385612b4a565b60405161231e919060408082526003908201527f414c4c00000000000000000000000000000000000000000000000000000000006060820152602081019190915260800190565b60405180910390a2505050565b7ff0c57e16840df040f15088dc2f81fe391c3923bec73e23a9662efc9c229c6a005468010000000000000000900460ff16610562576040517fd7e6bcf800000000000000000000000000000000000000000000000000000000815260040160405180910390fd5b610bba61232b565b60018101548154600091610c1e91612b4a565b8073ffffffffffffffffffffffffffffffffffffffff163b600003612416576040517f4c9c8ce300000000000000000000000000000000000000000000000000000000815273ffffffffffffffffffffffffffffffffffffffff8216600482015260240161063e565b7f360894a13ba1a3210667c828492db98dca3e2076cc3735a920a3ca505d382bbc80547fffffffffffffffffffffffff00000000000000000000000000000000000000001673ffffffffffffffffffffffffffffffffffffffff92909216919091179055565b60606000808473ffffffffffffffffffffffffffffffffffffffff16846040516124a69190612bee565b600060405180830381855af49150503d80600081146124e1576040519150601f19603f3d011682016040523d82523d6000602084013e6124e6565b606091505b5091509150611daf858383612687565b3415610562576040517fb398979f00000000000000000000000000000000000000000000000000000000815260040160405180910390fd5b6000838302817fffffffffffffffffffffffffffffffffffffffffffffffffffffffffffffffff85870982811083820303915050806000036125835783828161257957612579612b1b565b0492505050610db0565b8084116125bc576040517f227bc15300000000000000000000000000000000000000000000000000000000815260040160405180910390fd5b6000848688096000868103871696879004966002600389028118808a02820302808a02820302808a02820302808a02820302808a02820302808a02909103029181900381900460010186841190950394909402919094039290920491909117919091029150509392505050565b6000600282600381111561263f5761263f612c0a565b6126499190612c39565b60ff166001149050919050565b8082600001600082825461266a9190612b4a565b90915550505050565b8082600101600082825461266a9190612b4a565b60608261269c5761269782612716565b610db0565b81511580156126c0575073ffffffffffffffffffffffffffffffffffffffff84163b155b1561270f576040517f9996b31500000000000000000000000000000000000000000000000000000000815273ffffffffffffffffffffffffffffffffffffffff8516600482015260240161063e565b5080610db0565b8051156127265780518082602001fd5b6040517f1425ea4200000000000000000000000000000000000000000000000000000000815260040160405180910390fd5b60006020828403121561276a57600080fd5b5035919050565b803573ffffffffffffffffffffffffffffffffffffffff8116811461279557600080fd5b919050565b7f4e487b7100000000000000000000000000000000000000000000000000000000600052604160045260246000fd5b600067ffffffffffffffff808411156127e4576127e461279a565b604051601f85017fffffffffffffffffffffffffffffffffffffffffffffffffffffffffffffffe0908116603f0116810190828211818310171561282a5761282a61279a565b8160405280935085815286868601111561284357600080fd5b858560208301376000602087830101525050509392505050565b6000806040838503121561287057600080fd5b61287983612771565b9150602083013567ffffffffffffffff81111561289557600080fd5b8301601f810185136128a657600080fd5b6128b5858235602084016127c9565b9150509250929050565b6000602082840312156128d157600080fd5b610db082612771565b600082601f8301126128eb57600080fd5b610db0838335602085016127c9565b6000806000806080858703121561291057600080fd5b61291985612771565b9350602085013567ffffffffffffffff8082111561293657600080fd5b612942888389016128da565b9450604087013591508082111561295857600080fd5b612964888389016128da565b9350606087013591508082111561297a57600080fd5b50612987878288016128da565b91505092959194509250565b60005b838110156129ae578181015183820152602001612996565b50506000910152565b600081518084526129cf816020860160208601612993565b601f017fffffffffffffffffffffffffffffffffffffffffffffffffffffffffffffffe0169290920160200192915050565b602081526000610db060208301846129b7565b60008060408385031215612a2757600080fd5b612a3083612771565b946020939093013593505050565b600060208284031215612a5057600080fd5b5051919050565b7f4e487b7100000000000000000000000000000000000000000000000000000000600052601160045260246000fd5b81810381811115610c1e57610c1e612a57565b608081526000612aac60808301876129b7565b8281036020840152612abe81876129b7565b905073ffffffffffffffffffffffffffffffffffffffff851660408401528281036060840152612aee81856129b7565b979650505050505050565b604081526000612b0c60408301856129b7565b90508260208301529392505050565b7f4e487b7100000000000000000000000000000000000000000000000000000000600052601260045260246000fd5b80820180821115610c1e57610c1e612a57565b60208152815160208201526000602083015160408084015273ffffffffffffffffffffffffffffffffffffffff815116606084015267ffffffffffffffff60208201511660808401526040810151151560a0840152606081015160c0840152608081015160c060e0850152612bd66101208501826129b7565b905060a0820151610100850152809250505092915050565b60008251612c00818460208701612993565b9190910192915050565b7f4e487b7100000000000000000000000000000000000000000000000000000000600052602160045260246000fd5b600060ff831680612c73577f4e487b7100000000000000000000000000000000000000000000000000000000600052601260045260246000fd5b8060ff8416069150509291505056fea2646970667358221220c4bd4010292a89d9a7cabbd1f6bf4b5a0ac03a3dcdc33bb462555457becd455f64736f6c63430008180033",
  "linkReferences": {},
  "deployedLinkReferences": {}
}